:400000000040002011000000410200004102000010B500F0BDFE00F0EBF900F019F9000070B572B61C4A1D4B1D491A6002231D4A1D4D13601D4A182011601D4A0024136011
:4000400010221C4B1A6080221B4B92011A6012232B6000F02FFE8022184B52011A60184A184B19491A604022184B0D201C60184B1A6000F053FD0D2000F07CFD154B200067
:400080001C6000F08DFE112303222B60124B1A60124B1D321A6070BD99EE000000030240B10D0000000304403000104008030440180304400006044008060440000301405C
:4000C00040FF0080000001402D0E000028000340040101400C02224030003040000E3F40000000000000000000000000000000000000000000000000000000000000000077
:4001000010B5064C2378002B07D1054B002B02D0044800E000BF0123237010BD600100200000000090140000084B10B5002B03D00749084800E000BF07480368002B00D11E
:4001400010BD064B002BFBD09847F9E7000000006401002090140000B80000200000000010B500F099FBFEE7F0B517008022C1B005000E0052000021684601F07CF90024F0
:400180002C552000390001F03BF96A46735C1355802301345B009C42F2D1002280241300FF2664006946E85CC95C821852183240A9180F78EF5401330870A342F2D141B0C5
:4001C000F0BDF7B58B18002214000193019B994215D0FF23FF2501341C4006193378D2182A4087183D783570FF253B703678F3182B40C65C0B7873400B700131E6E7F7BD76
:40020000F0B515008022C1B004000E005200002168461F0001F02FF9002C0DD0002D0BD03A0029006846FFF79FFF684632002100FFF7C7FF002001E00120404241B0F0BDD1
:4002400010B501F0E3F803680C2B00D1FEE7FEE7F8B500250F49104B01394A1C14D000221F685C689E68A018B24203D0B858A0500432F8E70200DE68141AA64201D020C28F
:40028000FAE710330139E8E701F0C6F8FFF768FFFEE7C04601000000DC140000002370B50B480C4C0C4D9A002100032B00D8A958013381502C2BF6D1FFF7B2FE074B1A687E
:4002C000002A00D11A608022054B92051A6070BD000000204102000000000000B000002008ED00E0004770B506000D001400002802D0002000F05CFC00207519002C05D0AD
:40030000013C2B191B78C018C0B2F7E770BDFF23020070B59A43C0B01300541C6A46FF34D51A1E78EE540133A342FAD1C3B2D45C8C4205D0000AD15480B2110000F042FBC6
:4003400040B070BD013810B50B2830D80902494200F0BCFF06080A0C0E10141216191B20174B13E0174B16E0174B0AE0174B12E0174B0BE0174B09E0174B02E0174B00E0A9
:40038000174BC91817E0174B05E0174BC9180878C0B214E0154BC9180A7848788C780002230418430300C8781343000606E0002000F0FEFB00210B7848780002184310BD6C
:4003C000C0FF0100C1FF0100C5FF0100C9FF0100D0FF0100D1FF0100D6FF0100D2FF0100D4FF0100D8FF0100DCFF0100E0FF01000C4B10B51A68102313400B4A00D1136080
:400400001368802B0DD10024022021001460FFF799FFA04205D021000220FFF793FFFFF761FF10BD54000340B0000020F8B5010004000320FFF786FF210006000420FFF7B2
:4004400081FF210007000620FFF77CFF0025012828D021000320FFF775FF01363602F7192E0001300002B84209D203785A1ED2B2FD2A00D80126ED18EDB20130F3E7210027
:400480000120FFF75FFF6D42EBB20625834209D1002E07D0044B24026042C0180121FFF736FF00252800F8BDD1FF0100F0B5C14CA54400F01DFD62B60027009701979621D3
:4004C00003AC46ADFF2322004900280000F018FD0028F4D12188062900D890E02A780423012A5AD16E88F21D8A4200D989E0962149008A4200D984E0AA199279172A4CD12C
:40050000F3189BB2002B08D0DCAAAB49D21852181278013B801880B2F3E7AB195A7940421B79120280B21A430823824235D16AE0342B00D0D1E0009B012B60D1032E5ED161
:4005400080220021520091A8802700F094FF7F00182191ABD819FF3102ABF21EC91800F081FF0423F619FF33B6B29E4200D01BE116228B21FF3202AB9B18490002AA521890
:4005800010781B78000218438C4B0700984200D824E1FF3BFF3B00930933002546A8012143702B0AC370002302AA06320170291D1580857089B2002909D0DCAC7E4E641846
:4005C000A419247801391B199BB289B2F3E7DCA97B4C49195B420C199BB22370794C1B0A0C192370784B0735C91817230B70A9B27F3300F0B6FC62E7009B012B45D0042350
:40060000CBE70323C9E76B782C79180031380A282ED96E4A1568002D26D0009A012A25D106AC02AA13725681002147AE0C222000059600F020FFA660210004A8A84726230A
:40064000A588FF339D4202D9A368B34207D0A268002A01D1002D04D12368DBB29EE70E239BE70E23150099E7052397E7052394E700F036FEC2FF1600CFFF5EFF3900CFFFF6
:400680003E0051005EFF70008900002EB7D13000FFF7CCFE434243412B713300009D7DE7009B012BABD1012EA9D1002CA7D1484B1B681B685A0CD2B2002A02D1DB03DB0D00
:4006C00001E080239B002B711B0A6B71FF23AB71FE3BEB710023042560E7009B012B8ED1022E8CD934E7009B012B88D10027E6E6009B012B83D12C33F519FF339D4200DD79
:400700007FE791ABD819320047A900F0ABFE0023AFB21D0042E7731E1F2B0DD800232C48B34207DAEA18011D14795A5C62405A540133F5E7254B1E7106AB1900254A002752
:4007400011CA11C147AA03CB03C20123082500933B0023E7009B012B00D050E7032E00D04DE716228B21FF3202AB9B18490002AA521816781B7836021E43104B9E4265D915
:40078000F63BFF3B09E70020FFF750FE002802D18022114B1A6000250C4B1D7100F0ACFB00F008FA0423F9E601230027009302333D00F3E68CFCFFFFA7FDFFFFFF0100001D
:4007C000ACFDFFFFADFDFFFFAEFDFFFF7C010020BC00002094140000B00000202B4D2B6819680B0AC9B29BB2002901D001339BB26402381984B29C421ED3019B002B0BD1CD
:4008000080221900520006A800F035FE06A9204800F0D8F8012301931E4B1B79002B05D080212A1D490091A8FFF7EAFC91A9200000F0C8F8002804D00123002700930933E8
:40084000B6E70123070000930300B1E7802261028919090252000020FFF745FD0500002C0ED10B4B9E420BD121000520FFF76AFD21002D1A0620FFF765FDEDB22D1AEDB2F6
:400880006D4246AB1D710023012587E6BC000020FF0100007C01002070B50020FFF7C6FD431E98410624134D40422B6804401A68C021C03A0020FFF716FD6B6A1B78181AA0
:4008C000C0B2834203D12B681B68002B02D1002000F06EF9084B19681A00402901D0002C03D000231360FFF7E1FD80221A6000F061F970BDBC000020B000002082B06A46B0
:400900000B4B0C4900930C4B01930C4B1A600C4A1160C0461A68120F0F2A04D01A680020120F0A2A01D01868C0B202B07047C046B6E90000160000808401002008001040E5
:4009400004001040094B0A4A0A491A600A4A1160C0461A68120F0F2A04D01A680020120F0A2A01D01868C0B27047C04608001040B6E80000150000800400104082B06A46FB
:400980000B4B0C4900930C4B01930C4B1A600C4A1160C0461A68120F0F2A04D01A680020120F0A2A01D01868C0B202B07047C046B6EA000017000080840100200800104063
:4009C00004001040F0B50024304BC7B0029406000394984255D8A14253D0802206A8520000F040FD2A4B2B4D0493FF232A492B4A04AF7B602F600A60C0462A680191120F79
:400A00000F2A03D02A68120F0A2A01D02C681C400294029B002B36D100F063FA0400FFF76DFF0390039B002B02D1FFF78BFF0290029B002B16D11A4A1A490492049A019866
:400A4000360416430496134A2F600160C0462968090F0F2903D01168090F0A2901D01368DBB20293039B002B07D1FFF787FF0390039B002B01D0039B0293200000F035FA54
:400A800001E004230293029847B0F0BDFF010000B6D70000080010400400104004000080B6D800000500008070B5050000F019FA0400102D04D803210E4A13688B4307E095
:400AC000202D07D803210B4A13688B4302390B4313600AE0302D05D80321064A13688B430139F4E7002000F063F8200000F0FDF970BDC04630001040024A034B11680B4094
:400B00001360704700002240FFFFFFBF024B18684000C00F7047C046000022401B2800D901BE034B8000C318186819607047C04640000020F8B504000E00032900D901BE55
:400B40001B2C00D901BE032725003D40BD400635AF40AE4000F0C5F9A408054BA400E4182368BB431E43266000F0BFF9F8BDC04600E400E01F2318401E3B8340014A136060
:400B80007047C04600E100E01F2318401E3B8340014A13607047C04680E100E01F2318401E3B8340014A13607047C04680E200E001BE7047034A044913689BB20B43136039
:400BC0007047C0460CED00E00400FA0570B5802504002D02064BAC4205D9586800F078F9044BE418F6E79868604300F071F970BDE40000200080FFFF37B500F0C3F800288E
:400C000042D000F06EF91C21204B214A1B6812689B008A400B40920F1833D34080251D491D4A04000868ED0110401C4A5A435219D20B013A0243192B01D8194B0EE0194DC8
:400C400019481818EB18A0251A3B00781B786D031B182A43FF2B00D9FF239B051A43134D0A602B6830200193FFF71EFF8021104AC905136814200B431360FFF7A7FF019BC4
:400C800020002B6000F031F937BDC046080F0340280003400800224000F800C040420F000000D43F9C1400004DF3FF0F3000104000002240F7B50500183D0400182D46D89D
:400CC0000126244B3700EB409F4340D100F009F90190FFF71BFF0097002802D0FFF70CFF009607271C4E1D4A33681D49BB4333601C4BE3181B78DBB213601B4A1368BB43EA
:400D000013601A4B0A68E31818787F239A43034013430B60322000F0DBF8182C0ED033681C3CA408BB433C401C433460322000F0CFF83368AD08BB431D433560009B012B05
:400D400001D1FFF759FF019800F0CFF800E001BEF7BDC04611111101080F03400C0F0340180F03404DF3FF0F100F034034F3FF0F10B5034B1B7B584300F0AAF810BDC046C6
:400D8000E4000020014B1868C00F704700002240014A024B1A6070476588EDAC3800034070B5154D04002B68144E9B0F9B07984215D0032233687C20934333602B689B0F24
:400DC00000D09030FFF7D4FF00F08BF82B68A40F9B009B08A4071C432C6000F086F803223368934319002B689A0F5342534101330B43336070BDC0460C022240140222405B
:400E000010B5040000F06DF80549064A0B681440054A134023430B600B6800F066F810BD1002224004040400FBFBFBFF042270B5224C2368134213D021490B6813420CD034
:400E4000204B5D6908681540A84308605969914359619B68002B00D098470420FFF7D0FF80232268DB001A4215D015490A681A420DD0144A556908682B40984308605169CD
:400E8000114B0B405361D368002B00D098478020C000FFF7B5FF80232268DB021A420CD0074A12681A4204D0064B1B69002B00D098478020C002FFF7A3FF70BD1002224031
:400EC000F80000209C010020FFFBFFFF000000000230800803D001300238FCD1C046C0467047EFF3108072B6704780F31088704710B500F055F810BD10B500F05FF810BDE2
:400F0000F8B504000F0016000120002C28D0002926D00A255D4300F07FF8002810D000F07BF80500AB20FFF723FF00F075F88542F5D13900AF4200D929003180651807E0C3
:400F40000120013DFFF742FE002DE4D1102007E0AC4204D000F048F820700134F8E70020F8BD70B501230C001500002805D0002903D000F095F800232C80180070BD000084
:400F80008021064A10B5136809060B4313600820FFF7F0FD00F006F910BDC0460000254010B5054C2378002B03D100F085F801232370FFF7E5FF10BDB401002010B50820C1
:400FC000FFF7E2FD00F000F9054A082013685B005B0813600022034B1A60FFF7DFFD10BD00002540880F2540084B094A196813680020994208D013680133412B00D10300C2
:401000000449C85C1360C0B27047C046C8010020C401002011020020044B1868044B1A681B68904200D24130C01A7047C8010020C4010020134B144A30B515681C6819004A
:40104000A54208D1114B1C681F232340082B02D00F4B186015E013680133402B00D100230C68A342FCD002210A4CC0B221600A4CE0541360094B1A680A4202D11A680A43FF
:401080001A6030BDC0010020CC0100200802254040022540800F2540D0010020880F254070B504004518AC4204D02078FFF7C2FF0134F8E770BD000070B500240721042592
:4010C0001E4A1F4B08201A601E4B1F4A1C601F4B1A601F4B1F4A13601F4A11601F4A063914601F4A11601F4A13601F4B1C601F4B1D60FFF749FD03210820FFF71BFD1C4990
:401100000820FFF70BFD1B4B1C601B4B1C601B4B1C601B4B1C601B4B1D601B4B1C601A681A4B1A801A4B1C601A4B1C601A4B1C701A4B1C601A4B1C6070BDC0460B00000206
:40114000000025404000254001000A00480025400700008000032540040325401003254044002540000225400402254050002540F1110000880E2540C80E2540480F2540B6
:40118000080F2540C80F2540880F2540BC010020C8010020C401002010020020CC010020C0010020F021054A13688B4360390B431360034B1A88034B1A6070470003024019
:4011C000BC010020880F2540F021064A13688B431360054B1A68E423DB001340034A13807047C04600030240880F2540BC010020254B70B51B68002B00D09847234B1B6854
:401200005B071CD520241F2021490B680133412B00D100231F4A15681F4AAB4203D113681E4B1C7004E012681D4DD2B2EA540B601C4B1B680342E8D104221B4B1A601B4B9E
:401240001B689B071FD51F20194C1A4A21681368994210D013680133402B00D100231649164DC95CC9B229601360154B1B680340082BEBD104E00221124A13688B431360EE
:401280000222114B1A6070BDB8010020CC0F2540C8010020C401002040032540100200201102002008032540C00F25408C0F2540CC010020C0010020D00100204002254009
:4012C00008022540880F2540800F254002B4714649084900095C49008E4402BC7047C04603B47146490840004900095E49008E4403BC7047002243088B4274D303098B42F3
:401300005FD3030A8B4244D3030B8B4228D3030C8B420DD3FF22090212BA030C8B4202D31212090265D0030B8B4219D300E0090AC30B8B4201D3CB03C01A5241830B8B422C
:4013400001D38B03C01A5241430B8B4201D34B03C01A5241030B8B4201D30B03C01A5241C30A8B4201D3CB02C01A5241830A8B4201D38B02C01A5241430A8B4201D34B02BF
:40138000C01A5241030A8B4201D30B02C01A5241CDD2C3098B4201D3CB01C01A524183098B4201D38B01C01A524143098B4201D34B01C01A524103098B4201D30B01C01AF4
:4013C0005241C3088B4201D3CB00C01A524183088B4201D38B00C01A524143088B4201D34B00C01A5241411A00D20146524110467047FFE701B5002000F006F802BDC0466B
:401400000029F7D076E770477047C046014B18687047C0465C0100200E4B70B500251E000D4CE41AA410A54204D0AB00F35898470135F8E700F040F8084B00251E00084C62
:40144000E41AA410A54204D0AB00F35898470135F8E770BDC4140000C4140000C4140000CC140000002310B59A4203D0CC5CC4540133F9E710BD03008218934202D01970FB
:401480000133FAE770470000001600001F00000000000000B5116A25003C0101EEDBC9B9AA9B8E82766B60564D443B332C241D17100A044300000000F8B5C046F8BC08BC52
:4014C0009E467047290100009D020000F8B5C046F8BC08BC9E46704701010000F0140000B8000020A8000000F8000000000000000000000088140000415352363530312DC9
:401500003230313831303233415352363530312D32303138313032338C140000010000000000E02EC05D00001800000000366E010404040000000000000000000000000015
:401540000000000000000000000000000000000000000000B314000000000000000000000000000000000000000000000000000000000000000000000000000000000000A4
:401580000000000000000000000000000000000000000000FC000020000000000000000000000000000000000000000000000000000000000000000000000000000000000F
:4015C00000000000000000000000000000000000000000000000000000000000000000000000000000000000000000000000000000000000000000000000000000000000EB
:40160000004000201116000091EF000091EF000010B5034B83F308880EF092FC0DF0DEFC0040002070B572B6354A364B36491A60364A374B374D1A60C322374B00241A60FC
:40164000364A374B1A601022364B1A60364B083A1A608022354B12011A600223344A1360344A1160344A1360344A13608D22344B1A60344A344B1A608022344B52011A60E1
:401680000522334B1A60334B7B321A60C022324B12041A601622314B1A60314A314B1A6012232B600EF034FC18200EF0EFFAF0222D4B12011A602D4B2D4A2E491A602E4A5C
:4016C0000D2014602D4A1A6041222D4B1C602D4B1A602D4B013A1A600EF00CFA0D200EF035FA8020294BC0051C600EF04BFC112303222B60264B1A60264B1D321A6070BDB4
:4017000099EE000000030240B10D0000FF0F0000000402403000104000000440C9002400080004400C000440000204400802044000030440080304400C03044018030440A2
:40174000000404408E0D2C00080404400C040440180404400005044008050440000604407010000008060440040301400000014041FF0080810201000003014040FF0080D0
:401780002800034004010140000101400C02224030003040000E3F4010B5064C2378002B07D1054B002B02D0044800E000BF0123237010BD8802002000000000B07201005B
:4017C000084B10B5002B03D00749084800E000BF07480368002B00D110BD064B002BFBD09847F9E7000000008C020020B0720100B80000200000000089004018072110B594
:4018000080248843011F64040C6004390B60030014490C3B19601449043B19601349043B19601349043B19601249043B1960043B1A60114A043B1A60104A043B1A60104AF3
:40184000043B1A600F4A043B1A600F4A043B1A600E4A043B1A600E4A043B1A600D4B4038036010BDB151000012121212030303030202020201010101111111111010101083
:40188000090909090808080807070707060606060505050504040404F8B503F0C3FA056903F0C0FA4469A4002C196D4600260327AC420BD93E4203D1290009480EF0F6FFE8
:4018C00002CD08480EF0F2FF0136F1E706480EF0EDFF064B064A5D21064814F02DFBC046CC740100D674010006750100E5790100C0720100CD7201006846704710B503F0FD
:40190000CFF803F021FD03F0D9F810BD30B585B001F082FC01240023164D2B606B602C7200F01EFD042303AA02A91348039300F047FC002802D1029802F0A8F86B460394F9
:40194000DC1D03AA21000D4800F03AFC002802D122780B4B1A7001F00FFC0A480DF0CEFD01F03CFB03CD04F0B1FA0021064803F017FAFAE7A4020020FE72010007730100FD
:40198000F00000203D3D0000102700007FB562B601F0A4F902F094F90EF026FA14480EF039FA14490E200EF09BF80EF011FA124900200EF051FA0FF08BFA0FF001FA0123D7
:4019C00004930E4B0022039380239B00029300230B48009201930B4920230C3003F0CBF9002801D101F07EF9002007B000BDC046C05D0000B5F00000FD1800000D1900004D
:401A0000A402002012730100F0B50300312600200A4D013989B2A9420FD01A785040082247B24400E0B2002F01DA7440E0B2013AD2B2002AF4D10133EBE7F0BDFFFF0000DB
:401A400010B5041E07D08068002801D000F0CAFF200000F0C7FF10BD07B5130001900A00062001A90EF0F8FC0EBD70B50400C57808000E0014F0C1FD854218D1A088401905
:401A800000F0AAFF011EA06013D0E389A28908331800FFF7E1FF00280DD1300014F0ADFD31000200A06814F0A3FA002805D00B2002E00C2000E00520404270BD70B50400F8
:401AC000C078013000F088FF051E31D0E2780021013214F0A5FAE089E27829000830FFF7BBFFA088013000F077FF061E03D1280000F078FF1CE0A2880021013214F090FA6F
:401B0000E089E3780830A288C0183100FFF7A4FF01F0B0FA330001002A0007480EF0EFFE280000F05FFF300000F05CFF0B2000E00C20404270BDC0461B73010010B5074B27
:401B40005A78002A08D101219A70597080230449DB00044800F0DEFC10BDC046B8020020A11F000027730100F0B58BB0079104920593039014F041FDC3B206936B46032253
:401B80001F8AC3B2FB189BB202930B3393439BB204001800019300F01FFF051E5CD0FF2626402C00019A0021083414F039FA32000399200014F02BFA6B46A4191A8A0799F5
:401BC000200014F024FAA01B0299FFF71DFF49232B70A5336B706B461B7E214EEB703B0A6B716B461B7DA870AB71059B2F711B0AEB71B388019A1B0B04339B009B5B9A426E
:401C00000CD29B1A174A934204DCF378012B01D8FFF794FFB488002C02D004E0FFF78EFF1C277F4213E0019B2A0009A9062009940EF0EEFB071E0AD1019B019A1C19A4B286
:401C4000B480240B0434A400335B9B1A3353280000F0C8FE380001E00C2040420BB0F0BDB8020020870200001FB56B460130DA1D11700390012303A906200EF0C9FB05B0BE
:401C800000BD0000F0B587B0059280220E000B039BB252011D1D01939B189BB20490ADB20293102000F098FE041E78D01022002114F0B6F9082221002800FFF7CDFE0028BE
:401CC00045D12378492B0CD0FF2B06D16378FF2B03D12000FFF7B4FE55E0FF232371FF236371637921791A0213000B435A1E2D4992B28A4203D8E278511E090612D52000B5
:401D0000FFF79EFE341D284BA4001C19A3780835ADB2CC2B32D144210198FFF7A5FF4423A3702BE09A1893B21A0003210B328A4392B203926278EE2A0DD1A381E581059996
:401D40002000049B9847002829D00B3010D02000FFF776FE21E0144B371DBF00DF19BB78CC2B05D144210198FFF77EFF4423BB702000FFF765FE039BED18ADB22B00029A4F
:401D800008339A428DDC029A0823954201D2551BABB20436044AB600B352002000E0200007B0F0BDFF010000B802002070B50D4B05009A7C1C00EE2A06D0020000210A48AD
:401DC000FFF760FF00280BD1A37DEE2B01D1002006E02A0001210448FFF754FF0028F6D070BDC046B80200206B1A0000F0B585B00190002901D1C78951E0012966D1019B34
:401E00000822DF88002102A814F00AF9082202A93800FFF721FE041E5AD102AB1B78492B01D0002458E002AB5B78EE2BF9D1019A02ABDB78D0789842F3D100F0CDFD051E2E
:401E400048D002ABD87800F0C7FD061E03D1280000F0C8FD3EE0380002ABDA7829000830FFF7FAFD02ABDA78019B3100D8890830FFF7F2FD02ABDA783100280014F0B8F8CB
:401E8000002806D0280000F0ADFD300000F0AAFD22E0280000F0A6FD300000F0A3FD00213800FFF7E1FE041E16D1380B0C4B051DAD005D19AB78CC2BB3D100034421FFF70C
:401EC000D3FE041E08D14423AB7005E0162402E0052400E00C246442200005B0F0BDC046B802002070B50400808900F075FD05000C20002D22D0E089A28908302900FFF783
:401F0000ABFD061E04D0280000F06CFD052015E0A1892800FFF778FDA3783100834206D1E388002B06D0E28901219A4202D02000FFF75CFF280000F055FD0B20404270BD65
:401F400073B500236A4600934B33137080220603B6B204005201310006200EF0ABFA002802D00520404215E06B46EE256A465D7001A90423062001960EF04AFA0028F0D1DE
:401F8000054B0434A4001A199570044AE252DA780132DA7076BDC046B8020020FC0F000070B52A4C0121200049420C3000F030FB00283AD1E378002B37D0A37CEE2B04D0C3
:401FC000A37D0125EE2B30D100E00500A2882B030433110BA3804E1C022E00D10026331D9B00E3189B78442B18D1002231001848FFF748FE3000FFF7A3FF002815D1A088FF
:40200000CC21000B0003FFF72FFECC230435AD006519AB70E378013BE37006E0B3B2994202D00136F6B2D7E7A280200000230C30637000F06BFBA378002B03D0200008305A
:4020400000F055FC002000F0DDFA70BDB802002055200000032373B5848905000B349C43A4B2200000F0B8FC061E24D0E88922003100FFF7F1FC002801D0052415E00F4DF2
:402080003200AB8801A90193062023000EF0C0F90028F2D1A988611889B2A980090B043189004B5B1C1B4C530B243000644200F099FC200001E00C20404276BDB8020020F0
:4020C000012170B50F4D06000C354942280000F09FFA041E13D13000FFF768FE061E04D1280000F013FB023C09E02100FFF77EFE04003000FFF7A4FC280000F007FB20004B
:4021000070BDC046B8020020F7B507000191160000284FD000294DD0002A4BDD14F06DFA802847D880239B009E4243DC234843780090002B07D00121837849420133837062
:40214000083000F053FB0121009849420C3000F05FFA041E30D13800FFF728FE051E1CD083889E4208D1C078AB6832001818019913F03EFF00280CD0EB89320001993800D2
:40218000FFF7F2FC041E04D101002800FFF72EFE04002800FFF754FC06E00300320001993800FFF7E1FC040000980C3000F0AEFA200001E016204042FEBDC046B802002003
:4021C000F7B505000191160000282ED000292CD0002A2AD01368002B27DD0121164F49420C37380000F014FA041E22D12800FFF7DDFD0500380000F089FA002D17D0AA88DF
:402200003368934205DA32602800FFF719FC1C3C0FE0AB68E9780198591813F0F8FEAB8828003360FFF70CFC03E0162400E0022464422000FEBDC046B8020020F0B51600A1
:4022400085B01D003B4C012A00DD5C6880273A497F012000039714F0C6F9002812D1042E65D1EC68200014F0C8F9012302002100A868FFF749FF002859D000F0FBFE010016
:402280002E4811E02E49200014F0ADF9019000282AD1032E4BD1380000F09EFB041E06D100F0E8FE010027480EF029FB3FE03A00019913F0B5FE03AA2100A868FFF780FF57
:4022C000002806D000F0D6FE01001F480EF017FB06E000F0CFFE220001001C480EF00FFB200000F07FFB22E01949200014F07BF900280BD1032E1AD1A868FFF7E1FE0028BF
:4023000015D000F0B7FE01001248CDE72000124914F069F9041E0AD1104D020001002800FFF7B0FC220001212800FFF7ABFC05B0F0BDC046087501002D73010031730100C7
:40234000477301004B7301006173010077730100877301008B73010096760100BD1A0000F0B5674C85B02178002901D00026C4E01822200013F054FE20000C3000F038FB2D
:402380000500061E00D0B8E05E4800F02FFE02AB1D802300103300930195002303AF2803042239000393FFF757FB3B78EEB24B2B20D17B78CC2B03D0EE2B01D0442B19D1F9
:4023C000009A3100937050480022FFF75BFC7B78EE2B14D1009A4D4B12889A4206D0019A02AB9E5413000133019308E0E3780133E37004E03000FFF7A3FD002861D1009B1B
:40240000013504330093022DC7D104AA9446019B63441D0002AB093D5E1EB54217D0E3782F78002B0CD0380380B24421FFF71CFC002846D144230437BF00E719BB7004E008
:402440003800FFF77DFD00283BD1013DE5E7E078002803D0E378022B05D117E0FFF770FD0028F7D02DE0A37CCC2B03D1A27DEE2A02D119E0442BF9D0A27DCC2A03D1EE2B48
:402480001DD1012311E0442A19D1F8E70423CC210020A380FFF7E8FB061E10D1CC23A374E378013BE3700EE000231A0004339B00E15A80235B015B1A12039A18A280002602
:4024C00001E0061E19D120000021083000F008FB002811D101232370A3880D4A1B0B04339B00E35A934200D940E7E378012B00D93CE7FFF723FB00E00600300005B0F0BD25
:40250000B8020020CC000020E51E0000FC0F000087020000F0B5012500260027002489B09B08039102930100202304950096019707A8079402F01FFC03002000A34252D071
:402540003222FF32934246D027D8652B12D8642B41D2082B07D8072B3DD2052B3BD040D8022B3ED03BE0092B39D00B2040420B2B39D034E0CA2B08D8C82B30D2662B30D03C
:402580000C204042692B2ED029E096225200934221D024D8CB2B22D11DE0C8229200934219D00DD8114A934203D8013A934216D311E00F4A934212D00E4A93420FD80AE0FE
:4025C0000D4A934209D00AD90C4A934205D006D80B4A934203D3162004E00B2002E0012000E00E20404209B0F0BDC046BD020000BE020000C1020000E90300004F04000050
:402600004C04000010B5002002F030FD10BD000010B5002866D04B1C04D101225242D317006807E004680800002102F0A3FE02000B00200001F086FC2D4A0023904255D0D1
:40264000031E53D03223FF3398424BD027D8652812D8642846D2082807D8072842D2052840D041D802283FD03AE0092838D00B235B420B283AD033E0CA2808D8C8282FD26E
:40268000662831D00C235B4269282FD028E096235B00984226D023D8CB2821D122E0C8239B0098421ED00DD8124B984203D8013B984215D316E0104B984211D00F4B9842DE
:4026C0000ED80FE00E4B984208D009D90D4B984204D005D80C4B984204D201E00B2304E0012302E0162300E00E235B42180010BD85030000BD020000BE020000C10200009F
:40270000E90300004F0400004C04000010B5002859D0006801F096FC2D4A03000020934255D0181E53D03222FF3293424BD027D8652B12D8642B46D2082B07D8072B42D22F
:40274000052B40D041D8022B3FD03AE0092B38D00B2040420B2B3AD033E0CA2B08D8C82B2FD2662B31D00C204042692B2FD028E096225200934226D023D8CB2B21D122E010
:40278000C822920093421ED00DD8124A934203D8013A934215D316E00F4A934211D00F4A93420ED80FE00E4A934208D009D90D4A934204D005D80C4A934204D201E00B2018
:4027C00004E0012002E0162000E00E20404210BD85030000BD020000BE020000C1020000E90300004F0400004C04000010B5002863D04B1C04D101225242D317006807E0BA
:4028000004680800002102F0B5FD02000B00200002F05EF80023984253D03223FF3398424BD027D8652812D8642846D2082807D8072842D2052840D041D802283FD03AE039
:40284000092838D00B235B420B283AD033E0CA2808D8C8282FD2662831D00C235B4269282FD028E096235B00984226D023D8CB2821D122E0C8239B0098421ED00DD8124BF8
:40288000984203D8013B984215D316E00F4B984211D00F4B98420ED80FE00E4B984208D009D90D4B984204D005D80C4B984204D201E00B2304E0012302E0162300E00E2337
:4028C0005B42180010BDC046BD020000BE020000C1020000E90300004F0400004C04000010B5002802D0006801F0DEFF10BD10B5002802D0006801F0E1FF10BD10B500280B
:4029000058D0002956D0006802F028FF03000020834253D03222FF3293424BD027D8652B12D8642B46D2082B07D8072B42D2052B40D041D8022B3FD03AE0092B38D00B2091
:4029400040420B2B3AD033E0CA2B08D8C82B2FD2662B31D00C204042692B2FD028E096225200934226D023D8CB2B21D122E0C822920093421ED00DD8114A934203D8013ABA
:40298000934215D316E00F4A934211D00E4A93420ED80FE00D4A934208D009D90C4A934204D005D80B4A934204D201E00B2004E0012002E0162000E00E20404210BDC04605
:4029C000BD020000BE020000C1020000E90300004F0400004C04000010B5002801D003F00FFA10BD10B5002801D003F01BFA10BD70B5061E5ED0282003F002FA051E5BD0F0
:402A0000304901F05BFA041E52D02800FFF7EAFF3223FF339C424DD027D8652C12D8642C48D2082C07D8072C44D2052C42D045D8022C43D03AE0092C38D00B2040420B2CAE
:402A40003ED033E0CA2C08D8C82C2FD2662C35D00C204042692C33D028E096235B009C4228D023D8CB2C21D124E0C8239B009C4220D00DD8144B9C4203D8013B9C4215D360
:402A800018E0124B9C4211D0114B9C420ED811E0104B9C4208D009D90F4B9C4204D005D80E4B9C4206D201E00B2008E0012006E0356005E0162002E00C2000E00E204042BD
:402AC00070BDC046DE730100BD020000BE020000C1020000E90300004F0400004C04000070B506000C0000285FD0242003F088F9051E5CD02200304901F0B0FE041E52D06D
:402B00002800FFF76FFF3223FF339C424DD027D8652C12D8642C48D2082C07D8072C44D2052C42D045D8022C43D03AE0092C38D00B2040420B2C3ED033E0CA2C08D8C82C40
:402B40002FD2662C35D00C204042692C33D028E096235B009C4228D023D8CB2C21D124E0C8239B009C4220D00DD8144B9C4203D8013B9C4215D318E0114B9C4211D0114BDB
:402B80009C420ED811E0104B9C4208D009D90F4B9C4204D005D80E4B9C4206D201E00B2008E0012006E0356005E0162002E00C2000E00E20404270BDDE730100BD020000EE
:402BC000BE020000C1020000E90300004F0400004C040000F0B585B005000E0017000393002864D0002962D04C2003F009F9041E5FD0039B3200009331493B0002F096FD23
:402C0000061E52D02000FFF7EDFE3223FF339E424DD027D8652E12D8642E48D2082E07D8072E44D2052E42D045D8022E43D03AE0092E38D00B2040420B2E3ED033E0CA2E44
:402C400008D8C82E2FD2662E35D00C204042692E33D028E096235B009E4228D023D8CB2E21D124E0C8239B009E4220D00DD8154B9E4203D8013B9E4215D318E0124B9E422F
:402C800011D0124B9E420ED811E0114B9E4208D009D9104B9E4204D005D80F4B9E4206D201E00B2008E0012006E02C6005E0162002E00C2000E00E20404205B0F0BDC04683
:402CC000DE730100BD020000BE020000C1020000E90300004F0400004C04000010B501F083FE10BD10B501F0BFFE10BDF0B5002497B0394B08940EAA23CB23C223CB23C2DF
:402D000003CB03C201F05AFC2100344801F036FD334B344C344D1B682100280007930DF0C5FD210031480DF0C1FD280021000DF0BDFD2F4B1D682E4B9D4244D02E00283E00
:402D400008A9300002F07AF8002801D0002308937468002C00D1274C079B5927B34200D00B3F2B002C331B780026072B00D81E00200013F042FC12280CD91322002109A8E8
:402D800013F04EF92B00283B5968122209A813F03EF909AC00230393089B049702932B00283B5B69302201932B004B331B78B600009302AB9B189B5922000A490E480DF041
:402DC00075FD2D68B7E7074907480DF06FFD01F03DFC002017B0F0BDE4730100D40D0020CC0D0020D40200200B74010058740100600C002004740100A5740100002110B5CE
:402E000001220800FFF772FF10BD0000F0B50023060085B0039301F0D1FB736932699B00D31803A93000019302F022F8002808D17369039A05009C1A3369A4001C19032790
:402E400013E0022002F0ACFD01F000FC012017E03D4204D1220031000A480DF027FD04CC310009480DF022FD0135019B074E9C42EED3310006480DF019FD01F0E7FB0020CA
:402E800005B0F0BDCA740100D4740100D4020020DC740100F7B51049060013F0A4FB07000E4B1C680193019B9C4213D02500283D002F05D06968300013F095FB002807D13D
:402EC0006A68074907480DF0F1FC2800FFF79EFF2468E8E70020FEBD09750100600C0020D40200200D750100F7B50F00019014001D00012A43DD5E682A49300013F073FB60
:402F000000280ED1032C06D12749A86813F06BFB0122002800D0002239000198FFF7E6FE3FE02249300013F05EFB002809D1032C01D1A86802E001F075FF4068FFF7AAFFFB
:402F40002FE0022C1BD11A49300013F04CFB041E15D1184D184E290030000DF0A7FC2200290016480DF0A2FC2200290014480DF09DFC290030000DF099FC200011E00D4CA9
:402F8000104821000DF092FC21000F480DF08EFC21000E480DF08AFC21000D480DF086FC0020FEBD427801002B75010032750100AB760100D40200203D7501006F75010090
:402FC00092750100B5750100C7750100F77501002D76010010B5FFF787FF10BD10B50221014800F02DF810BDD8000020134B30B55A6C0123002A1ED00368002B15D083688C
:40300000002B12D0936C0F2B11D811009C001419A14204D004314D68A842F9D10AE0591C02339B009164985004E0162300E00C235B4200E00023180030BDC046D00200205D
:40304000F8B50B4B06005B6C0D000120002B0DD000240C27380060433018AC4205DAFFF7C5FF002802D10134F4E70020F8BDC046D0020020014804307047C046D002002045
:40308000F7B50425FF261E4B1B682B422AD06B46DC1D002323700CF017F91A4BC2B222701D6003001849334008686821C3185B788B4303D10D2A01D00A2A05D1100005F038
:4030C00065FD20780CF05CF82378002BDBD00F4F012221003800FFF711FC38001030FFF7FFFBD0E70A4B1A6880239B001A4205D0084A064813600C30FFF7F2FBF7BDC046E7
:40310000CC0F2540C00F25401C0200203C0300208C0F2540800F2540F8B507780600002F24D1134C390020000C30FFF7D9FC3078251D0001281839000C30FFF7D1FC30786A
:4031400000012818FFF754FC3078000128180430FFF74EFC21000123543140222000FFF739FD04480BF0F8FF0BF0E8FF0020F8BD3C0300208130000070B50025074C2575B7
:4031800000F0B6FCA0612000032314306577A577E5772377FFF7C0FF70BDC046BC030020194B70B518680D23000A01305843182110F0BAFA1823441CA3429B410125134A52
:4031C0005B4213700BF0EAFF114B1B68DB0B2B401B18002BF6D10BF0CBFF002812D18025A4B20C4E0BF0E2FF20000CF0ADFD33682D022B4206D120000CF0A6FD3368012026
:403200002B4200D0002070BD04030140880100200802254008032540244B30B51D00002264352A70224DE0209D661D0078352A70204D4002DD67E8251C1D6D02E56718622A
:40324000D8661C0080201C4940010834E0671C0099610321883421601C008C3422701C00164D903425601C00F02594346D0225601C00983420601C009C3421601C00A034CC
:403280001A75DA6122701A000D4CA43214601A00F824A832640214601A00596218675967AC32B0331060196030BDC046E4030020D5760100E0760100C9760100EB7601000E
:4032C000F6760100012213B500240192009200233A210A4800F01DFC23002200019400943321074800F015FC01940094230022003421044800F00DFC13BDC046201F002005
:40330000C81E0020D41E002010B5030003220121014800F007FC10BDD41E00200520704737B5002406200CF04DF914200AF03CFC0D4D23002800012232210194009400F05D
:40334000E8FB28200AF030FC012303223221280001930094230000F0DCFB14200AF024FC20000CF02FF937BDBC1E002010B5034800F0E0FB0128FAD010BDC046C81E0020FF
:4033800070B572B60A4C0021200000F0CFFB094DC021280000F098FC0021280000F094FC0121200000F0C2FBFFF7E0FF62B670BD201F0020F81E0020F7B507000C000192D3
:4033C0000AF070FC0F4D0021280000F0AFFB0E4EB9B2300000F078FC019BE3180193019B9C4205D02178300000F06EFC0134F6E70121280000F09AFB842F01D0FFF7B6FF20
:40340000F7BDC046201F0020F81E0020F8B5050017000C000AF046FC0F4E0021300000F085FBA9B20D4DE719280000F04DFC0021280000F049FCBC4206D00021280000F06D
:4034400043FC20700134F6E73000012100F06EFBFFF78CFFF8BDC046201F0020F81E0020F7B507000C0001920AF01CFC114E0021300000F05BFB104D0D21280000F024FCD2
:40348000390A280000F020FCF9B2280000F01CFC019BE718BC4205D02178280000F014FC0134F7E73000012100F040FBFFF75EFFF7BDC046201F0020F81E002007B56B46EC
:4034C000D971073301221900FFF7CAFF07BD0000F7B507000C0001920AF0E4FB134E0021300000F023FB124D1D21280000F0ECFB390A280000F0E8FBF9B2280000F0E4FB22
:403500000021280000F0E0FB019BE718BC4206D00021280000F0D8FB20700134F6E73000012100F003FBFFF721FFF7BD201F0020F81E002013B56B46DC1D01222100FFF70F
:40354000C7FF207816BD0000F7B507000C0001920AF0A8FB0F4E0021300000F0E7FA0E4D0E21280000F0B0FBB9B2280000F0ACFB019BE718BC4205D02178280000F0A4FB77
:403580000134F7E73000012100F0D0FAFFF7EEFEF7BDC046201F0020F81E0020F7B507000C0001920AF07EFB114E0021300000F0BDFA104D1E21280000F086FBB9B22800D7
:4035C00000F082FB0021280000F07EFB019BE718BC4206D00021280000F076FB20700134F6E73000012100F0A1FAFFF7BFFEF7BD201F0020F81E002010B504210AF042FDF5
:4036000010BD022070470000032801D8014B18707047C046C004002007B5012204480192009200233B21043000F073FA07BDC046C0040020002307B50448019300930322E6
:403640003B21043000F065FA07BDC046C004002072B6704762B6704770B504000E000F4D002800D12C692000310013F00BF824182078002801D12C610FE03100200012F0FA
:40368000E8FF011E04D1200012F0A6FF286103E00023013103702961200070BDC0040020F0B585B002900391039C394A63005B0D9E18029D132E30DC002E13DA354A364BCF
:4036C00010F0EEFD0022002310F0CEF9002859D0002C55DA63005B082B430025AB4251D02E4C4FE02E4F37413B0023402B434BD002980399274A284B10F0D2FD00220023CD
:4037000010F0B2F900283DD0002C03DA80235B033341E418BC43002534E0332E0ADD8023DB009E4230D1029A039B1000190010F0B7FD2BE001271B4A7F429B18DF40019578
:403740003D4221D002980399124A134B10F0A8FD0022002310F088F9002813D0002C0DDA142E01D1013409E034239E1B333BB340ED18019B9D429B415B42E418BD4301E0E7
:4037800000252C00039402950298039905B0F0BD01FCFFFF9C7500883CE4377E0000F0BFFFFF0F00EDFBFFFFF0B585B002900391039D394A6B005B0D9E18029C132E2EDC52
:4037C000002E11DA354A364B10F06AFD0022002310F04AF9002858D0002D53DB2C43251E53D000242F4D50E02F4F37413B002B4023434CD002980399284A294B10F050FDEA
:403800000022002310F030F900283ED0002D03DD80235B033341ED18BD43002435E0332E0ADD8023DB009E4231D1029A039B1000190010F035FD2CE001271C4A7F429B18D9
:40384000DF4001943C4222D002980399134A144B10F026FD0022002310F006F9002814D0002D0DDD142E01D1013509E034239E1B333BB340E418019B9C429B415B42ED1810
:40388000BC4302E0802500242D06039502940298039905B0F0BDC04601FCFFFF9C7500883CE4377E0000F03FFFFF0F00EDFBFFFFF0B585B000900191019B3F485900490D06
:4038C0000818DC0F009A132842DC00282DDA59004908114302D1009801996BE01903090B0A4351420A438021120B09035B0C0A405B041A430192314AE300D3181E685F6890
:40390000009A019B3000390010F0CAFC3B00320011F090FE02900391039BE4075B005B08234303930298039944E0254901410D001D401543CFD049080D001D40154324D04B
:40394000132824D08B438021890201410B4320E033280ADD8023DB009842BCD1009A019B1000190010F09CFC24E01648091801204042C8401042AED04008104209D082433A
:403980008020C0050841024303E02A0001E08022D2050193094BE40000921C1965682468009A019B2000290010F07AFC22002B0011F040FE05B0F0BD01FCFFFF0877010063
:4039C000FFFF0F00EDFBFFFF134B13B51A781C00022A09D90FF0C0FD02000B000F480CF065FF0F480CF062FF2378022B11D90FF0B3FD02000B0009480CF058FF094B9B6855
:403A00009847094B01000093084A094B09480CF04DFFFFF757FC13BDF0000020187701001F770100A4010020817701004A7701003C77010051770100014B18707047C046A2
:403A4000F0000020014B18787047C046F0000020004870478D7701000048704791770100004870479677010013B568460CF0FCF9044C019B1434009A034920000CF023FFB5
:403A8000200016BDC00400209B77010010B5040010F0C8FB011C0E4810F024F90D4910F021F912F0CBF900220B4B10F0F9FB00220A4B11F0BFFD10F037F8094B000218602D
:403AC000084A094B01201A60084B5C6010BDC046001BB74B000050410000E03F0000F03F0403014041FF008000000140F0000020014B58687047C046F000002010B5002888
:403B000002D10CF043F803E0012801D10BF098FD10BD37B506AC2478079D0094019500F0A7F837BD10B500F073F810BD10B500F07DF810BD10B500F0A3F810BD10B50400EB
:403B4000323809281AD80FF0D1FD0515091919191919110DC8B20BF041FD1EE0C8B20BF0DFFC1AE0C8B20BF057FD16E0C8B20BF0F5FC12E0C8B20BF011FD0EE0074B1B78C5
:403B8000022B0AD90FF0E8FC02000B0004480CF08DFE210003480CF089FE10BDF000002018770100A477010070B505003238092816D80FF09BFD05120815151515150F0CCD
:403BC0000BF018FD01E00BF0B7FC040018E00BF02FFDFAE70BF0CEFCF7E70BF0EBFCF4E7084B00241B78022B0AD90FF0B5FC02000B0005480CF05AFE290004480CF056FE85
:403C0000200070BDF000002018770100A4770100190010B500F086F8034B1A78002A01D101321A7010BDC046F404002070B504000D0000280DD10B4B1B78022B09D90FF078
:403C40008BFC02000B0008480CF030FE07480CF02DFE00202056431C02D02900FFF76EFF70BDC046F000002018770100B777010010B501704B1C02D00399FFF7D7FF10BDC7
:403C800010B5041E0DD10B4B1B78022B09D90FF063FC02000B0008480CF008FE07480CF005FE0023E35600205A1C02D01800FFF77BFF10BDF000002018770100E07701002B
:403CC00010B50BF045FB10BD10B50C000BF07AFB0028FBD12000F6240BF066FBFF340BF05BFB002812D1013C002CF8D1094B1B78022B09D90FF030FC02000B0006480CF0F3
:403D0000D5FD06480CF0D2FD054802E00BF03EFB80B210BDF000002018770100F3770100FFFF0000002906D00023C356342B02D1014BD03319607047F804002004220B4BA9
:403D400010B5196811420FD14022094B1968114205D01A60074BD0331B68984705E00122054B1968114200D01A6010BD1000044010040440F804002010030440F7B5089F85
:403D8000050001910620002D3AD0002938D0002A36D05800B84231D81E0003241643072026422DD13C402BD11600D719D018B446F618B84204D2614601340860C018F6E7F1
:403DC000C01B61464642704100260E60019924182960AA606C612C61EB60AA616F600BF047F92A00074B084C5969203269622C620A605A610BF040F9300001E09620FF30C5
:403E0000FEBDC046600C0020700C002070B504000D000620002C14D0002912D00BF028F92369E061002B07D0A269013B2A6012682361A261002401E069242B600BF01CF938
:403E4000200070BD70B504000D000620002C0DD000290BD00BF00CF9A369E0612B602369A561013323610BF007F9002070BD000070B504000620002C1AD0002918D0002587
:403E8000631DA16024606460257325616561DA770BF0EEF82200074B074ED9681C322162E6610A60DA600BF0E7F802232800637370BDC046600C0020680C002010B5012225
:403EC000FFF7D6FF10BD020010B5743203001078243304001A68002A11D08A4202D14A691A60F7E713689A4201D05B331C78031CA04200D9231CD8B213001433EAE710BDBB
:403F000010B50400FFF7DFFF230073331B780100834202D0200000F0E1FF10BD10B5836D5A7B022A0CD11A69030011007333733109781B78994203D100211000FFF7E0FFF6
:403F400010BD0000F7B50500009201930624002869D0364B00241B88042B64D00BF088F8334B06001B78A34204D0FA240BF084F8A40058E06B7B022B03D00BF07DF8082429
:403F800051E02C4F28693B68834211D1AB695A1C07D1294801F004FD30000BF06DF8264C41E00133AB6130000BF066F8234C3AE0002807D15A6A2B616A615D620123300012
:403FC000AB612EE0009A01990A4305D1C82430000BF052F8640026E0194A1278002A04D030000BF049F8C8241DE073331978030073331B788B4201D900F070FF009A019B96
:404000003968280000F0B8F830000BF035F800F0F3FA0BF02DF80500386800F0E1F8040028000BF029F82000FEBDC046E20E0020D00D0020C80D0020860300008503000018
:40404000D10D0020F8B504000625002845D0244B00251B88042B40D00BF00AF8214B07001B78AB4203D00BF007F8FA250FE0637B022B03D00BF000F808252EE01A4B1868F7
:404080002369984205D038000AF0F6FFE125AD0023E0A369013BA361002B04D038000AF0EBFF124D19E02100FFF72AFF2668B44204D1256138000AF0DFFF0EE0183E300086
:4040C00000F034F8736A26616361012374623800A3610AF0D1FF00F08FFA2800F8BDC046E20E0020D00D0020C80D002085030000026843681A600268536070470A0030B544
:4041000003687332834206D01C005B3425781478A54209D918000B0042681833CA61426888611360436030BD1B68EBE770B5050054352B780400022B06D0042B0ED1183056
:40414000FFF7D6FF032307E01830FFF7D1FF2100084800F0B7FA01232B7002E0012001F01FFC200001F066F82200002355321370A36570BDD40D002070B50C000500A0654A
:40418000511C01D1591C02D0200001F025F82300022254331A702100094800F0A5FA2B7B012B08D123006A681833E2616A68A56113606B6003E021002800FFF79FFF70BDC1
:4041C000D40D002010B5836D04001B7B002B06D11830FFF78DFF2100A06DFFF78FFF10BD10B55530007803280AD80FF07FFA10020406922002E0C92007E09420FF3007E093
:40420000CA20400001F0CCFBCA20400000E0002010BD43690200012B05D10269002093424041C0B207E00020834204D1136990698342804140427047F0B5040085B001915D
:4042400015000021032202A811F0EAFE2000FFF7E0FF002801D06A2095E06369002B12D1E3686268934201D12368E360A2690199E06811F0CCFEA369E268D218E26022693A
:40428000D31A23616AE02BBA03937F2D68D93F4B9D426DD93E4B05209D4274D84021032603AB5A7849420A4302A90A709A78DB784A708B702269AB199A42CCD36168E36854
:4042C0008B4201D12368E360E068A368984211D30F1AB7420ED2002F0DD03A0002A911F096FE2368F61BE3602369DB1B2361002E0DD000E0002702ABF9183200E06811F088
:4043000086FE23699B1B2361E3689E19E6606668E368B34201D12368E360E068A368984211D3361AB5420ED9002E0CD03200019911F06DFE019BAD1B9B1901932368E36042
:4043400023699E1B26612A000199E06811F05FFEE3685B19E36023695D1B2561002012E003ABDA787F23134002AA13700126A1E7802103AA937849420B4302A90B70D378F3
:4043800002264B7096E705B0F0BDC046FF3F0000FFFF3F000268436800699B1A181A42424241D0B27047F0B5040087B0009117000021032204A811F033FE2000FFF7EAFF6A
:4043C0006B23002800D08EE06268A36801926269002A14D1019A934201D12368A360A269A168009811F013FEA269A3689B18A36023699B1823613B1E75D03A6072E0019A45
:40440000934201D12368A360A16801260A7853B2002B09DA3F239A43802A04D03A3B0236C02A60D100E00226019B5D1AAE420BD9002D0AD02A0004A811F0E9FD2368A360BC
:4044400023695B19236100E00025A3680393731B029304ABE818029A039911F0D8FD029A039B944663440393A3601300226904A99446634423610023059306AB9D1B320038
:40448000280011F0C4FD012E03D03F232A7813402B70059B039A1DBA019B3D60934201D12368A360A168E368994210D9019B5E1AAE420CD23200009811F0A9FD009BAD1BCE
:4044C0009B1900932368A36023699E1926612A00A168009811F09BFDA3685B19A36023695D1925610023180007B0F0BD036842688360C360D31A03610020704710B5436164
:40450000029B8A18016042608361FFF7EFFF002010BD10B50C007334237818319B0019502378411C9B001B58FF311B605B602278FF3053119B00CB181F21914301228A400C
:4045400019680A431A602378427A9A4200D9437210BD000070B50C00733423780A4A9B009A58002A02D1FFF7D4FF0BE00A001B5818325D688B61CD6159680A605A6023783A
:404580009B001A5070BDC046D40D00200B0010B573331B78084A9B009A58002A02D1FFF7B8FF08E00A001B58183258688B61C86159680A605A6010BDD40D002010B50AF03A
:4045C00057FD0B4B1C78002C04D00AF055FDFA2080000CE0074A1378C72B03D90AF04CFDCA2004E0013313700AF046FD200010BDD00D0020D10D002010B50AF039FD0E4BC6
:4046000004001B78002B12D10C4B1B78002B0ED10B4A1300FF335B7A9B009B58094A183B1360094A12689A4201D00AF028FD20000AF022FD10BDC046D00D0020D10D00202B
:40464000D40D0020CC0D0020C80D002010B50AF00FFD104B1B78002B04D00AF00DFDFA20800015E00C4B1C78002C03D10AF004FDC9200DE0013CE4B21C70002C03D00AF0EC
:40468000FBFCC82004E00AF0F7FCFFF7B5FF200010BDC046D00D0020D10D002003004022FF335A720022431CFF3304C09842FCD1704710B5FFF74EFF10BD10B5FFF766FF85
:4046C00010BD00000A0010B5064B73321B68127873331B789A4202D1FFF758FF01E0FFF739FF10BDC80D00200B0070B573331A789300C3181C682568AC420AD00A00183212
:40470000944200D11D608A69CB691A608A69536033E01F25012400219543AC401960411C5311FF319B00CB181D68FF30A5431D60437A934221D14C07641A0B680A19D200EF
:40474000002B01D10431F8E7190C01D11B041032190E01D11B020832190F01D11B010432990F01D19B000232DB43DB0FD21801D4427202E0012001F013F970BD0300FF330E
:404780005B7A034A9B001B588900183B8B507047CC0D002010B50AF06BFC134B13491B6873331B789B005B58002B19D01C001A0059342478183A002C12D01C68A3420FD05D
:4047C000146E002C01D0013C1466146E002C07D15B331B789B00CC582468CC50536E13660AF04AFC10BDC046C80D0020D40D002070B504000E000AF03BFC637B0500012BBB
:4048000003D00AF039FC082027E02068844212D123695A1C05D128000AF02EFCC82080001BE0626901332361934200D9636128000AF022FC10E0002E06D02068844206D042
:404840001838FFF773FCF8E71838FFF76FFC28000AF012FCFFF7D0FE002070BD70B504000620002C1BD0002919D000250126631C22616261A160246064602573DE770AF0F9
:40488000F7FB2200064B1832D969E1610549A161D9690A60DA610AF0EFFB2800667370BD600C0020780C002010B50623002803D00021FFF79DFF0300180010BD10B50623DA
:4048C000002803D00121FFF793FF0300180010BDF7B50600170001930620002E3FD00AF0C7FB1F4B05001C78002C04D00AF0C4FBFA20800033E0737B012B03D00AF0BCFBA8
:4049000008202CE03369002B02D0013B336122E0019B3B4304D10AF0AFFBC82040001EE0104B1B78002B03D00AF0A6FBC82016E00D4C3A002168019B3000FFF71DFC28009B
:404940000AF09AFBFFF758FE0AF092FB05002068FFF746FC040028000AF08EFB2000FEBDD00D0020D10D0020C80D00200A4B0B4A1B609A60DA600A4A5B601A615A61094AA5
:404980009A61DA61084A1A625A62084A1A635A63074A9A62DA627047600C0020680C0020700C0020780C0020800C0020900C0020880C00200A4B70B51A681C001569094A06
:4049C0002B68934203D09620C00000F0E9FF23681B689D4203D99620C00000F0E1FF70BDC80D0020AFBEADDE7FB50422154B16481A80FFF753FE00F0E9FBFFF7B7FF01F09B
:404A0000E1F9124B0022124912481B605B60FFF725FF00F0A9FF012305930F4B00220493282303930D4B0E49029300230D48009201933F2300F01CF900F002FE002007B0C0
:404A400000BDC046E20E0020D40D0020780700200C78010080070020B5590000A80C002014780100500D002070B5094D03242B88042B0BD100210748FFF780FE064B2C806A
:404A80001A68064B023C1A600AF001FB200070BDE20E0020D40D0020CC0D0020C80D002010B50AF0E5FA044A1378013313700AF0E3FA002010BDC046D00D002010B50AF075
:404AC000D7FA0D4A04001378013BDBB21370002B0ED10A4B197800290AD10948FFF74EFE084B1A68084B1B689A4201D00AF0CBFA20000AF0C1FA10BDD00D0020D10D002078
:404B0000D40D0020CC0D0020C80D0020026843681A6002685360704770B50400002C10D025686669AC4208D0183D2800FFF7FEFA6B6A256163616C6201E0002323613400B8
:404B4000ECE770BDF0B587B01E000D9B0400059311AB1B780291019312AB1B780392049313AB1D780C9F0AF083FA3B4B1B78002B04D00AF081FAFA2080006BE03F2E0AD1D6
:404B8000364B5A5D002A04D00AF076FA9A20400060E001225A550AF06FFA78220021200011F03EFA059B3B4301D0676601E00A236366636E220023660123019971321370DF
:404BC0001D3A002901D0137003E003211170621CD3770E9B002123610F9B0E989A0011F01FFA029B6A466360230073331E705E700F9B127C6361230075331A70033B1D70EE
:404C00002369174A0F991A600E98109B039AFCF7F3FD20600AF02CFA2300124A28335168A262E1620B605360019B0500002B0DD021000D48FFF741FD0C4B1B88032B05D1AB
:404C400028000AF019FAFFF7D7FC02E028000AF013FA002007B0F0BDD00D0020E00E0020AFBEADDE600C0020D40D0020E20E0020F0B589B0040013A805789446119E129FAD
:404C80000620002C20D000291ED0002F1CD0109A002A19D0002E12D03F2B13D800200790013006900595039602920E9D0F9E04970095019662462000FFF744FF04E096205F
:404CC000400001E03220FF3009B0F0BDF0B58FB00A9318AB1B7806000C931AAB1B7809910B920D930624002842D0169B013C002B3ED0980001F084F86434071E38D0782014
:404D000001F07EF8051E03D1380001F08BF82FE0099B3060002B26D0179B002B23D00A9B3F2B22D80C9B02970793022306930D9B0B9A0593179B09990493169B0393149BCE
:404D4000159C009301940A9BFFF7FCFE041E0FD004280DD0380001F065F8280001F062F80023336004E00624F4E73224FF34F1E720000FB0F0BD30B589B010AC2478069426
:404D80000024059404940F9C03940E9C02940C9C0D9D00940195FFF799FF09B030BD00000B00F7B50343070001910524002B2FD00AF05EF9174B06001B78002B04D0FA241A
:404DC0000AF05AF9A40023E0134B1B78002B03D00AF052F9C8241BE0104D3A002B68286854331C70019B00F0F7F929680C48FFF77BFC30000AF040F9FFF7FEFB0AF038F98C
:404E000006002868FFF7ECF9040030000AF034F92000FEBDD00D0020D10D0020C80D0020D40D002010B50AF023F9034B1C680AF023F9200010BDC046C80D002006230028DE
:404E400014D0002912D0030054331B78072B0BD0002300699A0082185268002A01D10133F8E70B60002301E03423FF331800704770B506000D000AF0FBF8174B0400002E10
:404E800002D01A68964203D11E68FCF735FD00E03068002807D120000AF0EEF8022000F07FFD022016E073699A0033699B18984209D920000AF0E0F89620C00000F070FDE3
:404EC0009620C00006E01B1A9B0820002B600AF0D3F8002070BDC046C80D0020F7B504000D00260073363778BD4246D0230054331B78062B3AD801229A401300142213425B
:404F000018D15432134213D19B072FD51C4F21003800FFF7E9FB1B4B35701B68210038009C4202D1FFF7C5FB27E0FFF7C6FB24E0357022E035702000FFF744F9A36D5A7BF1
:404F4000022A1AD11C692300733301931B7832789A42C6D39F4210D100212000FEF7B3FF019B05001B788342BBD106E03420FF3000F016FD3420FF3000E00020FEBDC046A7
:404F8000D40D0020C80D0020F8B504000AF070F8324B05001B78002B04D00AF06DF8FA2080005AE0002C01D12D4B1C68230073331B783F2B4FD0230075331B78012B04D064
:404FC00028000AF059F8092047E0254B1B689C4208D1244B1B78002B04D028000AF04CF8C8203AE02600606A5436FFF795FD3078013805281ED807270EF078FB030F0D0F08
:405000000A0A21001848FFF76FFB0723337017E0200000F00FF9377012E0200000F00AF920001830FFF772FD072320003370FEF775FF05E028000AF01FF83420FF300CE043
:4050400020002830FFF762FD28000AF015F8FFF7D3FA002001E097204000F8BDD00D0020C80D0020D10D0020D40D0020F7B5040009F0FEFF484B05001B78002B04D009F00A
:40508000FBFFFA20800085E0002C01D1434B1C68230073331B783F2B05D1280009F0ECFF9720400076E0230075331B78022B04D0280009F0E1FF09206CE0384B1B689C4239
:4050C00008D1374B1B78002B04D0280009F0D4FFC8205FE0260054363378072B05D1280009F0CAFF3420FF3054E0002223692C4F19001A713A78183101323A70294A5068D4
:405100009A61D86101605160226927489A601A79DC6002321A71FFF7C7FB3B780190013B3B70002807D0280009F0A6FF022000F037FC01982EE0606AFFF7EEFC3078013888
:4051400005281DD807270EF0D1FA030F0D0F0A0A21001648FFF7C8FA0723337010E0200000F068F837700BE0200000F063F820001830FFF7CBFC072320003370FEF7CEFEA0
:4051800020002830FFF7C2FC280009F075FFFFF733FA0020FEBDC046D00D0020C80D0020D10D00207807002080070020D40D002010B5FFF737FE753003780020022B02D1C3
:4051C000FFF754FF01E0FFF7DFFE10BD014B1B605B607047980C00201100F0B5194324D014001D001149026443640E684F68A4197D418463C5630E4CA446216861450AD046
:405200008C68CD68A41BBD419D4204D801D1944201D80968F2E703004A68303342634A68016313604B6063468364F0BDA00C0020980C0020836C002B06D0436B026B1A60BF
:40524000026B53600023836470470000F7B504000D0009F00DFF394E032732687368A4185D41374B346075601C680090344B9C425FD03068716825002368303D0193AA6B49
:40528000EB6B121A8B41002B53DC01D1002A50D12300243318780238042846D80EF026FA114527033D00002225342270013228001A70FFF7BFFF29002248FFF703FA019CF7
:4052C000D4E72800FFF7B6FF2300183B5A6819681C4811601B6829005A60FFF7F3F92300022225331A700123243423700FE02800FFF7A0FF2300183B5A68196811601B68B9
:405300005A6023000222253324341A7027702800FEF704FE0023AB65D1E71F700023253423702800FFF786FFC9E7012000F038FBC5E7009809F0A0FEF7BDC046A00C0020FB
:40534000980C0020D40D002010B501200021FFF77DFFFFF71FFA10BD70B509F089FE044B1C685D6809F088FE2900200070BDC046A00C0020FA22F8B5920000230D00040080
:405380000EF086FBFA22002392000EF0A1FBFA2206000F0020002900920000230EF078FB92197B4110001900F8BD0000036A0E4AF0B59C460D4C416A136826686768934221
:4053C0000AD09C69DD69A41BBD418D4204D801D1644501D81B68F2E75A6842605A68036010605860F0BDC046580C0020500C002002000368481ED0B5062800D980E00EF04F
:4054000075F90421384E7F5B6B001A003C321278052A78D11C003D342278012A73D09E6ADF6A394A1E625F621068516880197941364A9861D9619A601800FFF7B7FF0123C1
:40544000237060E01A003C321278052A5BD11A003D321178002956D09968002906D059681868086018684160002199600023137049E09068D16804000C4344D01C003C34B4
:405480002478052C3FD11C003D342478002C3AD19862D9621169526919635A6333E019003C31097805292ED119003D310978002929D112695A6126E01A003C32117805291F
:4054C00021D119003D31097800291CD13E331B78012B18D1117016E01A003C321178052911D119003D31097800290CD118003E300078022807D11170180000F093FC02E0E3
:40550000012000F04DFAD0BD500C0020580C002010B501790400052907D10339FFF768FF04212000FFF764FF01212000FFF760FF10BD0000F0B58DB03E4D05AB06AE01933D
:40554000009601225242D317280000F061F90400FFF702FF0395002C03D1374B1860596002E0012000F01CFA3000FFF7D1FF334C25682700A542DFD0FFF7EEFEAA69EB692B
:40558000121A8B41002B02DC1BD1002A19D005A901910096039800F03BF90500FFF7DCFEC9235B009D420CD0002D06D1224B186059603000FFF7ACFF30E0012000F0F0F902
:4055C0002CE01D4B1860596028E01B4DA269E36928686968121A8B41002BC8DC22D02369616920009847A368002B06D0636822681A60226853600023A360226B636B110026
:40560000194312D0286869682262636212184B41A760A261E3612000FFF7C8FE2468BC42D3D1A4E7002ADAD0A1E723003D331970F4E7C04688090020500C0020580C0020DF
:405640007FB50F4B0F4A1B605B6014230E4900930E48043300F074F8012305930C4B00220493802303930B4B0B49029300230B48009201930523FFF7FBFA07B000BDC04696
:40568000580C0020A80700201E7801008809002035550000D40900202A780100D80B0020F0B585B003930AAB80CB0400160006201A78002C32D0002E30D000292ED0013824
:4056C000002F2BD0039B002B27D0230000254833A1602460646026616563A563276325731A7009F0C5FC22000D4B4032596B0D4B616423640A4B0A605A6309F0BDFC04234E
:405700002000637314300C9B0097039A3100FEF7F5FE636A2800E36300E0034805B0F0BD600C0020900C0020BD0200001FB5012402940194069C0094FFF7B2FF04B010BDEA
:4057400030B500251C0085B0089B02950135634301950094FFF7A4FF05B030BDF8B504000E0015000620002C4CD000294AD009F07FFC637B0700042B03D009F07DFC0820D9
:4057800040E0236B9D4203D909F076FC1E4839E0002D03D109F070FC052033E023689C421FD120002A0031001430FEF745FD051E07D0380009F060FC28006A2D22D1134815
:4057C00020E0636BA26B01336363934200D9A363636AE26B9A4200D9E363380009F04CFC0FE0183B1C002A003100D86C10F00FFC20002565FEF79AFC380009F03DFCFEF7F6
:40580000FBFE0020F8BDC046BF020000BE020000F0B585B00500019202930B9F0620002D66D00A9B002B63D0002F61D009F020FC304B04001B78002B08D0019B029A1343BE
:4058400004D009F019FCFA20800051E06B7B042B04D0200009F010FC082049E02E0014363000FEF797FD039000280CD13A000A993000FEF798FD6B6B2000013B6B6309F0C3
:40588000FBFB039834E0019B029A134306D120003B6009F0F1FBC820400029E0164B1B780393002B06D0002320003B6009F0E4FBC8201DE0114E0A9B3168019ACB64280058
:4058C000029BFEF759FC200009F0D6FBFEF794FE09F0CEFB05003068FEF782FC039B041E01D133681B6D28003B6009F0C5FB200005B0F0BDD00D0020D10D0020C80D0020DB
:4059000030B589B001225242D3171548FEF7E0FF002802D0682000F043F809F0A9FB114B1C689C4219D06368226801AD1A602268536009F0A1FB21001C221439280010F063
:4059400066FB00242B78A342E7D9A300EB185868013400F067FAE4B2F4E709F08DFBD1E780070020780700207FB501230593084B0022049340230393064B07490293002330
:405980000648009201930523FFF772F907B000BD01590000FC0500203578010000070020034B10B51B68002B00D0984710BDC046C800002070B50124002509F059FB0549F1
:4059C0000A684B6812196B410A604B6009F054FBF3E7C046480D00202021002819D00023020C9A4201D100041033020E02D108330002DBB2020F02D104330001DBB2820F9A
:405A000002D102338000DBB21900002801DB0133D9B220220020531A052B04DD981F142B01DD012040427047072370B5040048680D009843FFF7D0FF0F280FD80023AB606B
:405A40008300E3181A69EA601A69002A00D095601D6101238340E2681343E36070BD072370B5050048680C009843FFF7B5FF0F2819D8E368002B01D0A2689A60A268002AB8
:405A800000D0D3608300EB181A69944208D1E2681A61002A04D101238340EA689A43EA600023A360E36070BD10B5002809D0002907D08068FEF7C6F9002802D00120FFF7FE
:405AC0006FFF10BDF7B507000D00061E00D186E00E1E00D183E009F0CBFA3860B86800280CD0202D0AD80369002B07D001A9FEF78DF9002802D1019E002E6DD10723073548
:405B00009D43202D00D220252800FFF765FF0026431C61D00122431C52429A40FB681A40B24220D091B23300B14201D1120C1033D1B2002902D10833120ADBB2110702D16E
:405B400004331209DBB2910702D102339208DBB2D20701D40133DBB20F2B04D804339B00DC59002C0DD1072204308000C459002C05D0636893439D4203D9E468F7E7260042
:405B80002AE021003800FFF76AFF07239C466168624626000B002800083693432830F218834211D30220083B0140604629435D1B01236160814371181D430C604D6038001B
:405BC0001160FFF731FF03E0022153688B435360012362689A436260386809F04DFA3000FEBDF8B504000D1E4BD0002849D009F03FFAA3682060002B0AD09A68954207D3C7
:405C00005B689D4204D229002000FFF74DFF35E001222E0011000727083E73681943BB437160ED186B68134209D029002000FFF716FF6B687268BB4308329B1873607368D0
:405C400035009B070BD5356820002900FFF707FF0722736893436A6808329B186B6029002000FFF7E1FE07232A006968083299435318022259681D600A435A60206809F079
:405C8000FBF9F8BDF0B5070085B00620002F57D0002955D00726CC1DB44351180A1BB24313000392274A5E309A18274B9A4247D850220021200010F0B3F909F0D9F90823E5
:405CC0002200210000256365039B5032503BB343083BD3186831591A20602565516121006031D56195611960022159609360230051685833B1435918D5600831636020009A
:405D00003C60FFF76EFF8521A560C9002000FFF7D9FE051E10D080230200DB000093283220230A49FEF72AF8002801D1A56003E029002000FFF755FF206809F09DF900203A
:405D400005B0F0BD00F8FFFF00F80F0047780100F8B507000620002F33D0002931D00723CD1D9D4351184C1B9C435E303F2C28D922000021280010F053F909F079F90823E4
:405D80002A000026083C386010326B602B19183CEE61AE612E606C611A6002225A60AB602B0069680532083391437A685918EA6008317B603800FFF714FF386809F05CF9D4
:405DC0003000F8BD70B50126094B0A4D06CB2800FFF758FF084C094B1B689E4207D2626821682868FFF7B4FF01360834F3E770BDC0000020F8050020C8000020BC000020D6
:405E000010B5041E04D105480AF050FD200004E0034B01001868FFF755FE10BD54780100F805002010B5034B01001868FFF7D9FE10BDC046F80500206420704770470020DC
:405E400070470000002270B5016803790F4DCA542B780400022B04D9027941790C480AF025FD002623799E4209DA2B78022B04D923680848995D0AF019FD0136F2E72B78A9
:405E8000022B02D904480AF011FD70BDF00000206F780100897801000675010010B50849040000680AF00FFD064B20711B78022B03D9216804480AF0F9FC6423637110BDF1
:405EC0008F780100F0000020A378010010B5FDF77BFD034800F072FB00F08EFB002010BDF800002010B5437841790548002B00D004480AF0DBFC0122034B1A7010BDC046AA
:405F0000F0780100017901000C0100207FB501250A4C01AE20000DF0DDFA3000357007F089F8002808D13379002B02D00323237502E0034B5D7025757FBDC046E40E00205D
:405F40000C01002070B5FA250024AD00074B9B695B7B6B439C4206D207F050FEFA210DF053FD6418F2E7200070BDC046E40E0020F0B50400007887B0082800D9B6E00DF0F4
:405F8000B5FB056AB5B5B57DB58B9B0063785A4C002B08D10233237558490233584823770AF084FCA2E005230125A66923772575F07B022820D0401903210DF025FDF173D7
:405FC000FFF7C0FFA369DA7B022A17D19A7CD97C0023090211431A000E001E415F1C2E4205D0012B01D13B00F6E70132D2B23B00102FF1D1627701E0FA204001A269D37BCC
:40600000022B1DD1637F002B14D10133D3733B493C480AF04BFC3C4B1B78022B0FD90DF09BFA02000B0039480AF040FC38480AF03DFC04E0013B6377FFF784FF00E0354888
:40604000010020000DF07AFA20000DF0C7F90022314B5A704AE004202056637C227C617801900225605F00902C480AF01FFC6378002B3BD00622204B1A7737E062781E4B10
:40608000002A07D108321A75234B073A1A702DE000229A7706220DE06278174B002A03D109219A77197521E09A7F012AF0D801329A7707221A7519E063780F4D002B13D13C
:4060C000012603AC20002370267107F0A7F82C232370AB692000DB78237107F09FF803232B750D4B1E7001E009232B7501220A4B1A7007B0F0BDC046E40E002013790100FB
:406100001A79010022790100F0000020187701002C79010080EE36000C0100205079010010B5054B1A6A1278920704D55B6A0348DB680430984710BDE40E00200C01002047
:4061400030B5037885B0062B10D00A2B04D0042B36D11C4A137533E0002301A80370037107F05CF80722174B1A7529E043780E2B26D1427C032A23D1124C15302100283131
:406180000D784B782B438D782B430500002B11D00FF02EFF00280DD020000DF09BF90A49002007F047FD010020000DF0C7F920000DF014F920000322283029000FF027FF22
:4061C00005B030BDE40E0020C0D4010070B52F4E8AB0307A01A906F0B7FE03000120002B51D12B4D05AC2B6A1A780C231340082B03D12070200007F0DDF90C22B256D3B2F9
:40620000002A04DA2B6A1B78DB07DB0FDBB2002B19D10E3302A803702B002B331B78002B03D12B6A5B781B090133037106F0F6FF002323702B6A9A7822717268A260327AB0
:40624000A281DB7813E001232A6A2370937823717368A360337AA3812B002B331B78002B03D153781B071B0F0133E373D378A37300232B352B702000FF33337307F0DEFA1A
:40628000431E9841C0B20AB070BDC0460C010020E40E0020F8B543780400002B6DD1374B1A781E00022A0ED90DF056F902000B0033480AF0FBFA10220E20215E2379A256B6
:4062C00030480AF0F3FA08232F4D2B77637B002B11D0E378E02B21D02C4EA1687375227B3069327592B207F0B0FC30006B6A10301B69984712E0A37C002B0FD03378022BEB
:406300000CD90DF029F90B0002001D480AF0CEFAE96A1F484B1CEB620AF0C8FAA07C237B4600607EE278810030000843217801394F424F4139000143207EC000014349B2B9
:4063400014480AF0B3FA237B002B08D112480AF0ADFAA37E002B10D004232B750DE00F480AF0A4FA0026237B9E42EFDAA3680C48995D0AF09BFA0136F5E7F8BDF000002085
:406380001877010072790100E40E00200C010020A5790100B979010006750100D2790100CD7901001FB51A2301AC2000237006F041FE0023984200D16368180004B010BDE9
:4063C000F0B5A5B00DAC5A22002120000FF028FE764B96220D93E023D821A375A377E377A93B627562776B44443ADA77217521770EABD539D97739234B3A6B44DA773A23D2
:4064000077326B44DA77FF203B23E0756B44FD386632DA77A0760FAB3E30883AE076DA772E3017AB1870452301326A4413705E2264256A4415705F2275356A4415706C3DB6
:4064400018AA1570612276266A441670622238366A4416706322593E6A44167019AA5A361670652224366A4416706622293E6A4416706722213E6A4416704D4A5B3E6263EA
:406480001BAA16702A005E366A4416700200063E6A4416706F22363E6A44167064361CAA1670712204276A44177016226E376F443A707227BC46634601376F443B70BB2321
:4064C0001DAF3B707527B9236F443B707627A3236F443B70772799236F443B70F2231EAF3B707927DE236F443B707A276F443E702727393E6E4437701FAEC83737707D2614
:406500006E44357011356D442870252511306844057020A80170F5207E316944087082217B3869440870832168306944087021A9183008708521E53869440870862107307B
:40654000694408708721BE306944087022A9533808708921452369440B708A235F216B4419708B23134D6B444739197007A829000FF04DFD29001422163102A80FF047FD54
:40658000012301AD20002B700BF018FB0A4C206307A80BF0DBFBA06102A80BF035FD206228000BF0E7FB25B0F0BDC046BABAABAB7A237266AC780100E40E00200022094B14
:4065C00010B51A755862FBF7CBFE002806D0064A064B2A32064907480FF0AEFC02F046FC10BDC046E40E0020AC780100D479010032020000E7790100F0B597B002F088FB0E
:40660000664B5B6E002B00D09847654F387D3D00C0B2092800D943E30DF072F80A0004024202EB0237034203F0FF7602AA02D60239005C4B44317B635B4B0800BB635B4B07
:406640000822FB635A4B10383B647B6A1B687B640023BB6406F0E2FAFFF7B2FE3B6B1021181D0BF0A1FA002800D058E1BB69514C1A780323134000D0A8E02378022B09D964
:406680000CF06AFF02000B004B480AF00FF94B480AF00CF92378022B17D90CF05DFF02000B0045480AF002F9386BC67E837D427D017D0496867E0396467E0296067E0196D0
:4066C000C07D00903E480AF0F1F82378022B1BD90CF042FF02000B0037480AF0E7F8386B061DF67F837F427F017F0496C61CF67F0396861CF67F0296461CF67F0196C07FA2
:40670000009030480AF0D2F82378022B00D8CEE00CF022FF02000B0027480AF0C7F8386B060033363678C31D821D411DDB7FD27FC97F0C960600323636780B960600313691
:4067400036780A96060030363678099606002F363678089606002E363678079606002D363678069606002C363678059606002B363678049606002A36367803960600293681
:406780003678029606002830007808360190F07F00900D480AF08AF889E0C046BC8E0100E40E0020E55E000095620000715F000041610000F0000020187701002A7A010061
:4067C000317A0100637A0100957A0100012B6ED12378022B09D90CF0BFFE02000B00D3480AF064F8D2480AF061F82378022B1CD90CF0B2FE02000B00CC480AF057F83E6BCA
:4068000033003433187801331B781B0203431A00330036331978373609040B003178134309061943C3480AF041F82378022B09D90CF092FE02000B00BC480AF037F8BE481A
:406840000AF034F800262378022B06D92B6BBB489B19383319780AF029F80136102EF2D12378022B02D9B6480AF020F82378022B09D90CF071FE02000B00AC480AF016F8B8
:40688000B0480AF013F800262378022B06D92B6BAA489B19483319780AF008F80136102EF2D12378022B02D9A54809F0FFFF2378022B0DD90CF050FE0B0002009B4809F02C
:4068C000F5FFBB69A04819788909413109F0EEFF2378022B11D90CF03FFE02000B00934809F0E4FFBB6999491A780C231340082B00D09749974809F0D9FF2378022B0ED912
:406900000CF02AFE02000B00884809F0CFFFBA699148D17C937C0902194309F0C7FF28008E490CF053FD0BF0FDF80BF0ABF80322BB691D781540012D65D100260EAC2000A1
:406940002270666006F06AFC042323703B6B343318783B6B35331A783B6B120236331B7802431B0413431A003B6B200037331B781B061343636006F051FC052323703B6B41
:4069800020003833636006F049FC062323703B6B20004833636006F041FC2F232370BB699A7CDB7C1B0213439C4644226B469B181D70634601213341F0B2721C0B4209D0A4
:4069C0008E4201D11600F4E76E4644216B1C76187055DDB21600102AEBD1691E002007F029F944226B469B181B5C2000636006F015FC012320002370237106F00FFC0BF024
:406A000041F8032305E0002D09D11B7B002B02D001233B7503E006233B7502F0FBF800233B77EBE50321BB691A780A4000D035E111AC22703A6B10001430606024320830BE
:406A4000A060E260DA7BA274002A05D11A7CE2745B7C2174637401E09B7B2374404D2B78002B00D11AE16B78002B00D116E1200006F0A0FD002800D128703A4B1B78022B26
:406A800000D80BE10CF068FD02000B00274809F00DFFBB69227CD97B334809F007FFFDE0304B1B78022B09D90CF056FD02000B001E4809F0FBFE2D4809F0F8FE0EAD2900AA
:406AC00006200BF05FF92F2311AC2000237006F0B1FA237920002B711523237006F0AAFA237929006B7100230620EB700BF07AF90AF0C8FF3F22BB691B789343402B01D15E
:406B0000393BCEE00323CCE001230EAC2000237006F090FA2379002B00D1BFE0104B1B78002B64D0052311A803705EE018770100EF7A0100F57A0100057B0100CD79010008
:406B4000067501000F7B0100197B01001E7A0100247A0100297B0100387B01000D5F00000C010020F00000204F7B0100787B01004D4B1B78002B00D190E0BC69637921794E
:406B8000A0791B020B4300041A000300E07913430006184301D00CF067F8BC69637A207AA17A1B02034309041A000B00E17A13430906194302D0E0780BF084FF072311A801
:406BC000037006F0F7FC69E0374B1B78002B0ED0082311A80370BB695A7807231A40110002799A430A431340037106F0E3FC042357E02D4C2378002B04D0FFF791FAFFF7C7
:406C0000E5FA207002223B6A1B78134246D028000CF060FC012311AC2000237006F00AFA00281ED12379002B1BD002223C6A2378134216D0E37BA07B217C1B020343090421
:406C40001A000B00617C13430906194309D0FA239B00280059430CF071FC28000CF0BEFB1CE03C6AE27BA07B237C120202431B0413431A00637C1B0613430FD10222237820
:406C800013420BD09343237008E0074C2378002B04D000232372FFF799FA2070062300E000233B75AAE4C0460C01002070B5054C0500237D062B02D120000CF00BFC25751C
:406CC00070BDC046E40E0020014B187701207047E40E0020014B187F7047C046E40E002010B588B0012826D0022809D0002802D00124644220E0012203AB1A7004001BE09A
:406D00000C78072C02D9012464421DE00823200003AA11791370013B1840994301430B400520694613710BF02DF86B46694605201C700BF057F8002403A806F03BFC0028FE
:406D400002D10422024B1A75200008B010BDC046E40E0020F0B50E0089B001931700731E9E4103AD0400290006200BF00BF8F6B2FB1F2E70F82B00D86F70019B013BFE2B3E
:406D800002D86B461B79AB70290006200BF02AF8002C11D1204D28000CF09CFB012305A80370047106F03AFA002830D106232B751A4B20005E702CE0012C28D105AD2800C3
:406DC0002C7006F037F9002821D12B79002B14D0287128002C7006F021FA002817D1104B1B78022B09D90CF0B7FB02000B000D4809F05CFD0C4809F059FD074C20000CF015
:406E000069FB0123054A00205370237501E00120404209B0F0BDC046E40E00200C010020F000002018770100817B0100F0B5154D89B001902800029103921F000CF04AFBB3
:406E4000012305AE3000337006F0F4F8041E15D13379002B12D06B460B4E1B793A000399706833730FF0D3F86A462B00127A2B331A70032337722B75200001E001204042A7
:406E800009B0F0BDE40E00200C01002010B500280DD000290BD0002A09D0064B5C7D0470187D107000201A690A60187501E00120404210BD0C01002010B5024B5B6A1B6837
:406EC000984710BDE40E0020F0B50F00194987B006001022343102A80FF099F80F2E24D8154C0120A36800250193984702AB985D124B40195843124BC018E368019398476C
:406F0000636B002001939847032008F04BFE236C0120019398476B000135F852082DE5D1E36A01939847002001E00120404207B0F0BDC046AC780100BC8E0100400D030005
:406F40006035081C30B5050085B03C20FBF744FD041E0CD03C2229000FF059F81A2301A80370446006F05AF943425841C0B205B030BD1FB50400FFF715FA021E15D0036810
:406F8000A3420ED11B2201AC02902000227006F045F90022904208D16068FBF723FD012203E0806B0028EAD10200100004B010BD10B5FFF7F7F9031E05D00023806B0133BA
:406FC000DBB20028FAD1180010BD000010B500280FD001280AD1084C2378002B0BD0FFF79FF8FFF7F3F82070002002E0072802D10638FCF783FD10BD0C010020F8B5040009
:4070000017000D000FF0F9FA012283B2E6189B1810401341BB4202DC2900002705E00120404221E001201B01DFB2B4421BD223781A00413A052A01D8373B04E01A00613AE5
:40704000052A03D8573B3B43DBB205E0303BDAB2092AE4D813003B4301340128E2D10B7000200131D9E7481BF8BD000007B501280CD1084BDB689847FB210090064B074AD2
:407080004900074809F02DFC002001E0012040420EBDC046A4010020387D01003E7D0100161100201FB5012810D10A4B9B689847FB21094B00900293084B094A01934900F6
:4070C000084B094809F00DFC002001E00120404205B000BDA40100203C7701004A770100527D01004C7D01001611002007B501280CD1084B5B689847FB210090064B074AB3
:407100004900074809F0EDFB002001E0012040420EBDC046A4010020767D01003E7D01001611002007B501280CD1084B1B689847FB210090064B074A4900074809F0D1FB83
:40714000002001E0012040420EBDC046A40100207C7D01003E7D010016110020F0B58BB007AE04000491170000210A2230000EF057FF032C02D0042C0BD0BEE0FB21614B50
:40718000614A019300934900604809F0AAFB0027B5E0049B012B00DCAFE00022786811000FF014FB3B6805901D780024572D09D1049B022B00D1A0E022002100B8680FF08D
:4071C00005FBC4B26B46187D02380D2800D987E00CF08CFA07192E8686868686868640516273572D06D1062008F0F0FA200008F0F9FA05E0012008F0E9FA08F0FFFA040000
:407200000922434910E0572D06D1062008F09EFA200008F0A7FA05E0012008F097FA08F0ADFA040009223B4930000EF0F0FE55E0572D06D1062008F0A9FA200008F0B2FACB
